S00F000050726F6A65746F2E7372656332
S11300000C9443000C9455000C9455000C9455002A
S11300100C9455000C9455000C9455000C94550008
S11300200C9455000C9455000C9455000C945700F6
S11300300C9455000C9455000C9455000C945500E8
S11300400C9455000C9455000C9455000C945500D8
S11300500C9455000C9455000C9455000C945500C8
S11300600C9455000C94550005A84CCDB2D44EB94F
S11300703836A9020C50B9918688083CA6AAAA2A47
S1130080BE000000803F11241FBECFEFD8E0DEBFCA
S1130090CDBF21E0A0E0B1E001C01D92AC3CB207AD
S11300A0E1F70E94CB000C94C1030C9400001F9252
S11300B00F920FB60F9211242F933F934F935F9398
S11300C06F937F938F939F93AF93BF93EF93FF931C
S11300D080910201909103019C012F5F3F4F309367
S11300E003012093020165E070E00E949903FB0183
S11300F0EE0FFF1FEE0FFF1FEC5FFE4F608171815B
S1130100828193812091000130910101232B59F4C4
S113011017BC20E030E04FE753E40E9436020E940F
S1130120790168BD0AC018BC20E030E04FE753E411
S11301300E9436020E94790167BD8091020190916C
S113014003018A3F9105B4F095B180E1892785B90F
S1130150109203011092020181E090E020910001CD
S113016030910101232B11F080E090E09093010184
S113017080930001FF91EF91BF91AF919F918F9177
S11301807F916F915F914F913F912F910F900FBE8F
S11301900F901F9018958FEF8AB984B904E011E08D
S11301A0C0E0D0E0BE010D2E000C880B990B0E941C
S11301B0AA012BED3FE049E450E40E94360220E01E
S11301C030E048E452E40E9407010E94A302F801CF
S11301D061937193819391938F012196C233D105D9
S11301E009F792E09093800081E0809381009093DE
S11301F06F002FEF30E0309389002093880093EA5A
S113020094BD85BD88EC87BD88BD7894FFCF0E94DE
S11302101B010C94FC010E94F50158F00E94EE01B0
S113022040F029F45F3F29F00C94E50151110C943E
S113023030020C94EB010E940D0268F39923B1F390
S1130240552391F3951B550BBB27AA2762177307F8
S1130250840738F09F5F5F4F220F331F441FAA1F8C
S1130260A9F335D00E2E3AF0E0E832D09150504048
S1130270E695001CCAF72BD0FE2F29D0660F771FF6
S1130280881FBB1F261737074807AB07B0E809F0DC
S1130290BB0B802DBF01FF2793585F4F3AF09E3F61
S11302A0510578F00C94E5010C9430025F3FE4F3BF
S11302B0983ED4F3869577956795B795F7959F5FA4
S11302C0C9F7880F911D9695879597F90895E1E0F0
S11302D0660F771F881FBB1F621773078407BA074F
S11302E020F0621B730B840BBA0BEE1F88F7E095AA
S11302F008950E94150288F09F5798F0B92F992706
S1130300B751B0F0E1F0660F771F881F991F1AF0FC
S1130310BA95C9F714C0B13091F00E942F02B1E030
S113032008950C942F02672F782F8827B85F39F02F
S1130330B93FCCF3869577956795B395D9F73EF495
S113034090958095709561957F4F8F4F9F4F08953D
S1130350E89409C097FB3EF490958095709561955B
S11303607F4F8F4F9F4F9923A9F0F92F96E9BB2711
S11303709395F695879577956795B795F111F8CF8D
S1130380FAF4BB0F11F460FF1BC06F5F7F4F8F4FF8
S11303909F4F16C0882311F096E911C0772321F0EE
S11303A09EE8872F762F05C0662371F096E8862F86
S11303B070E060E02AF09A95660F771F881FDAF7DD
S11303C0880F9695879597F9089597F99F6780E820
S11303D070E060E008959FEF80EC089500240A9493
S11303E01616170618060906089500240A9412160C
S11303F01306140605060895092E0394000C11F43F
S1130400882352F0BB0F40F4BF2B11F460FF04C0EB
S11304106F5F7F4F8F4F9F4F089557FD9058440F44
S1130420551F59F05F3F71F04795880F97FB991F4F
S113043061F09F3F79F0879508951216130614060C
S1130440551FF2CF4695F1DF08C016161706180699
S1130450991FF1CF86957105610508940895E89474
S1130460BB2766277727CB0197F908950E94490295
S11304700C94FC010E94EE0138F00E94F50120F07A
S1130480952311F00C94E5010C94EB0111240C94C8
S113049030020E940D0270F3959FC1F3950F50E056
S11304A0551F629FF001729FBB27F00DB11D639F22
S11304B0AA27F00DB11DAA1F649F6627B00DA11DC8
S11304C0661F829F2227B00DA11D621F739FB00D6E
S11304D0A11D621F839FA00D611D221F749F3327DE
S11304E0A00D611D231F849F600D211D822F762F77
S11304F06A2F11249F5750409AF0F1F088234AF054
S1130500EE0FFF1FBB1F661F771F881F91505040BF
S1130510A9F79E3F510580F00C94E5010C9430023C
S11305205F3FE4F3983ED4F3869577956795B79546
S1130530F795E7959F5FC1F7FE2B880F911D969560
S1130540879597F908959F930E94AD020F9007FC39
S1130550EE5F0C94D6020C94EB010E941502D8F3C2
S1130560E894E0E0BB279F57F0F02AED3FE049EC28
S113057006C0EE0FBB0F661F771F881F28F0B23A24
S113058062077307840728F0B25A620B730B840B5B
S1130590E3959A9572F7803830F49A95BB0F661FED
S11305A0771F881FD2F790480C945203EF93E0FF13
S11305B007C0A2EA2AED3FE049EC5FEB0E94FB0290
S11305C00E94FC010F90039401FC9058E8E6F0E0CF
S11305D00C945E030E94EE0138F00E94F50120F0B5
S11305E039F49F3F19F426F40C94EB010EF4E095D2
S11305F0E7FB0C94E501E92F0E940D0258F3BA17AA
S1130600620773078407950720F079F4A6F50C9424
S11306102F020EF4E0950B2EBA2FA02D0B01B90179
S113062090010C01CA01A0011124FF27591B99F064
S1130630593F50F4503E68F11A16F040A22F232F70
S1130640342F4427585FF3CF469537952795A795C0
S1130650F0405395C9F77EF41F16BA0B620B730B67
S1130660840BBAF09150A1F0FF0FBB1F661F771FD8
S1130670881FC2F70EC0BA0F621F731F841F48F48D
S1130680879577956795B795F7959E3F08F0B0CF16
S11306909395880F08F09927EE0F979587950895FD
S11306A09F3F31F0915020F4879577956795B795E2
S11306B0880F911D9695879597F908959F938F9329
S11306C07F936F93FF93EF939B01AC010E943602DB
S11306D0EF91FF910E9472032F913F914F915F918F
S11306E00C943602DF93CF931F930F93FF92EF92F4
S11306F0DF927B018C01689406C0DA2EEF010E9420
S11307004902FE01E894A5912591359145915591B1
S1130710A6F3EF010E94FB02FE019701A801DA94FF
S113072069F7DF90EF90FF900F911F91CF91DF91C8
S1130730089597FB072E16F4009407D077FD09D08F
S11307400E94AD0307FC05D03EF4909581959F4F20
S11307500895709561957F4F0895AA1BBB1B51E1C5
S113076007C0AA1FBB1FA617B70710F0A61BB70B1D
S1130770881F991F5A95A9F780959095BC01CD01C2
S10907800895F894FFCF78
S9030000FC
